00COTAHIST.2026BOVESPA 20260304                                                                                                                                                                                                                      
012026030402BIED3       010BIOMA EDUC  ON      MA   R$  000000000075900000000007590000000000750000000000075500000000007580000000000721000000000075900005000000000000000600000000000000453400000000000000009999123100000010000000000000BRBIEDACNOR2101
012026030402BLAU3       010BLAU        ON      NM   R$  000000000104600000000011020000000001042000000000108100000000010900000000001090000000000109302096000000000000642500000000000695158300000000000000009999123100000010000000000000BRBLAUACNOR8120
012026030402BMEB3       010MERCANTIL   ON      N1   R$  000000000730300000000073460000000007200000000000722200000000073460000000007253000000000739900030000000000000007200000000000052002700000000000000009999123100000010000000000000BRBMEBACNOR8210
012026030402BMEB4       010MERCANTIL   PN      N1   R$  000000000803600000000083000000000007940000000000809900000000081490000000008037000000000815000255000000000000037900000000000306972800000000000000009999123100000010000000000000BRBMEBACNPR5215
012026030402JHSF3       010JHSF PART   ON  ED  NM   R$  000000000093600000000009580000000000935000000000094200000000009450000000000942000000000094505257000000000002352900000000002218031100000000000000009999123100000010000000000000BRJHSFACNOR2157
012026030402PDGR3       010PDG REALT   ON      NM   R$  000000000021500000000002160000000000207000000000021000000000002080000000000208000000000021200043000000000000014100000000000002965100000000000000009999123100000010000000000000BRPDGRACNOR8123
012026030402PDTC3       010PADTEC      ON      NM   R$  000000000015300000000001530000000000147000000000014900000000001520000000000148000000000015300048000000000000020000000000000002988000000000000000009999123100000010000000000000BRPDTCACNOR3101
012026030402PEAB4       010PAR AL BAHIAPN           R$  000000000399900000000040000000000003999000000000399900000000040000000000003944000000000420000002000000000000000200000000000000799900000000000000009999123100000010000000000000BRPEABACNPR0137
012026030402PETR3       010PETROBRAS   ON      N2   R$  000000000445400000000044800000000004340000000000439400000000044060000000004406000000000440714664000000000010727900000000047146634400000000000000009999123100000010000000000000BRPETRACNOR9212
012026030402PETR4       010PETROBRAS   PN  ATZ N2   R$  000000000409500000000041170000000003993000000000403300000000040500000000004049000000000405069040000000000050915600000000205388530700000000000000009999123100000010000000000000BRPETRACNPR6224
012026030402PRIO3       010PETRORIO    ON  ATZ NM   R$  000000000555700000000055970000000005357000000000550200000000055520000000005552000000000556033381000000000010336000000000056875162600000000000000009999123100000010000000000000BRPRIOACNOR1112
012026030402RAPT3       010RANDON PART ON      N1   R$  000000000065400000000006540000000000642000000000064600000000006430000000000642000000000064400022000000000000003100000000000002004200000000000000009999123100000010000000000000BRRAPTACNOR7166
012026030402BRAP3       010BRADESPAR   ON      N1   R$  000000000202100000000020580000000002010000000000203400000000020310000000002031000000000203700198000000000000035000000000000071199500000000000000009999123100000010000000000000BRBRAPACNOR5153
012026030402BRAP4       010BRADESPAR   PN      N1   R$  000000000236600000000023780000000002305000000000235200000000023570000000002356000000000235806799000000000002516600000000005920926900000000000000009999123100000010000000000000BRBRAPACNPR2153
012026030402CMIN3       010CSNMINERACAOON      N2   R$  000000000053600000000005400000000000530000000000053400000000005350000000000534000000000053808289000000000005776100000000003089699300000000000000009999123100000010000000000000BRCMINACNOR2116
012026030402EGIE3       010ENGIE BRASILON      NM   R$  000000000325400000000033330000000003254000000000330200000000033010000000003300000000000332107220000000000001366300000000004512848200000000000000009999123100000010000000000000BREGIEACNOR9132
012026030402AALR3       010ALLIAR      ON      NM   R$  000000000049000000000005280000000000483000000000051000000000005280000000000496000000000052800202000000000000075700000000000038650700000000000000009999123100000010000000000000BRAALRACNOR6104
012026030402ABCB4       010ABC BRASIL  PN      N2   R$  000000000263800000000026940000000002638000000000267200000000026730000000002673000000000267501948000000000000338600000000000904845400000000000000009999123100000010000000000000BRABCBACNPR4150
012026030402ABEV3       010AMBEV S/A   ON           R$  000000000157000000000015840000000001540000000000155600000000015600000000001558000000000156021741000000000026249500000000040855775400000000000000009999123100000010000000000000BRABEVACNOR1134
012026030402B3SA3       010B3          ON      NM   R$  000000000179000000000018280000000001774000000000180400000000018160000000001815000000000181830517000000000036341300000000065575681600000000000000009999123100000010000000000000BRB3SAACNOR6140
012026030402CPFE3       010CPFL ENERGIAON      NM   R$  000000000480100000000049090000000004779000000000482100000000048290000000004829000000000483509284000000000001556400000000007503724800000000000000009999123100000010000000000000BRCPFEACNOR0138
012026030402CPLE3       010COPEL       ON      NM   R$  000000000145200000000014990000000001450000000000148500000000014950000000001494000000000149527702000000000023212900000000034479596700000000000000009999123100000010000000000000BRCPLEACNOR8153
012026030402BGIP3       010BANESE      ON           R$  000000000650000000000065000000000005855000000000616000000000059400000000005850000000000602600010000000000000001100000000000006776900000000000000009999123100000010000000000000BRBGIPACNOR1215
012026030402BGIP4       010BANESE      PN           R$  000000000369900000000038260000000003699000000000376300000000038000000000003770000000000389800018000000000000002800000000000010537300000000000000009999123100000010000000000000BRBGIPACNPR8215
012026030402BHIA3       010CASAS BAHIA ON      NM   R$  000000000028600000000002900000000000283000000000028600000000002880000000000287000000000028802136000000000003130300000000000897513800000000000000009999123100000010000000000000BRBHIAACNOR1104
012026030402CRPG5       010CRISTAL     PNA          R$  000000000179800000000018470000000001720000000000178400000000018380000000001791000000000183800019000000000000004300000000000007672900000000000000009999123100000010000000000000BRCRPGACNPA3119
012026030402CRPG6       010CRISTAL     PNB          R$  000000000184900000000018490000000001849000000000184900000000018490000000001790000000000184000001000000000000000100000000000000184900000000000000009999123100000010000000000000BRCRPGACNPB1119
012026030402CSAN3       010COSAN       ON      NM   R$  000000000060800000000006130000000000599000000000060700000000006040000000000603000000000060526802000000000026738500000000016235341000000000000000009999123100000010000000000000BRCSANACNOR6129
012026030402COCE5       010COELCE      PNA          R$  000000000315000000000031990000000003149000000000316000000000031500000000003150000000000319900022000000000000004500000000000014223000000000000000009999123100000010000000000000BRCOCEACNPA3150
012026030402COGN3       010COGNA ON    ON      NM   R$  000000000033500000000003380000000000329000000000033300000000003300000000000330000000000033212486000000000020799600000000006937479900000000000000009999123100000010000000000000BRCOGNACNOR2110
012026030402BPAC5       010BTGP BANCO  PNA     N2   R$  000000000109300000000011520000000001093000000000112100000000011440000000001124000000000114500037000000000000004700000000000005273200000000000000009999123100000010000000000000BRBPACACNPA0139
012026030402BRAV3       010BRAVA       ON  ATZ NM   R$  000000000186600000000018850000000001830000000000185600000000018810000000001879000000000188118617000000000007705600000000014303884100000000000000009999123100000010000000000000BRBRAVACNOR3104
012026030402FESA3       010FERBASA     ON      N1   R$  000000000125800000000012580000000001258000000000125800000000012580000000001154000000000125600001000000000000000100000000000000125800000000000000009999123100000010000000000000BRFESAACNOR8194
012026030402FESA4       010FERBASA     PN      N1   R$  000000000079100000000008010000000000781000000000078500000000007810000000000781000000000078701976000000000000743200000000000583798100000000000000009999123100000010000000000000BRFESAACNPR5090
012026030402FHER3       010FER HERINGERON      NM   R$  000000000042600000000004260000000000408000000000042000000000004250000000000415000000000042500035000000000000028800000000000012112800000000000000009999123100000010000000000000BRFHERACNOR5103
012026030402FIGE3       010INVEST BEMGEON           R$  000000000241100000000024110000000002411000000000241100000000024110000000002410000000000000000001000000000000000100000000000000241100000000000000009999123100000010000000000000BRFIGEACNOR6132
012026030402BMGB4       010BANCO BMG   PN      N1   R$  000000000049900000000005130000000000498000000000050400000000005020000000000502000000000050402139000000000002147300000000001084058900000000000000009999123100000010000000000000BRBMGBACNPR0118
012026030402BMIN4       010MERC INVEST PN           R$  000000000200000000000022510000000001951000000000210300000000022510000000002185000000000225900040000000000000004900000000000010308500000000000000009999123100000010000000000000BRBMINACNPR1177
012026030402BMKS3       010BIC MONARK  ON           R$  000000003829900000000383000000000037576000000003804600000000382000000000037600000000003810000015000000000000000040000000000001521868000000000000009999123100000010000000000000BRBMKSACNOR9169
012026030402BMOB3       010BEMOBI TECH ON      NM   R$  000000000239500000000024620000000002385000000000243400000000024490000000002440000000000244901975000000000000319900000000000778749600000000000000009999123100000010000000000000BRBMOBACNOR7107
012026030402BNBR3       010NORD BRASIL ON           R$  000000001220000000000122000000000012200000000001220000000000122000000000012001000000001220000002000000000000000200000000000002440000000000000000009999123100000010000000000000BRBNBRACNOR8211
012026030402EQPA3       010EQTL PARA   ON           R$  000000000064900000000006530000000000649000000000065000000000006490000000000643000000000064800005000000000000002500000000000001627000000000000000009999123100000010000000000000BREQPAACNOR1112
012026030402EQTL3       010EQUATORIAL  ON      NM   R$  000000000408600000000042100000000004086000000000417200000000041790000000004170000000000418118892000000000007393000000000030850496900000000000000009999123100000010000000000000BREQTLACNOR0135
012026030402JALL3       010JALLESMACHADON      NM   R$  000000000030100000000003060000000000299000000000030200000000003040000000000302000000000030500572000000000000497100000000000150439800000000000000009999123100000010000000000000BRJALLACNOR0106
012026030402RAPT4       010RANDON PART PN      N1   R$  000000000064400000000006550000000000636000000000064300000000006400000000000639000000000064004150000000000002355900000000001515719200000000000000009999123100000010000000000000BRRAPTACNPR4166
012026030402RCSL3       010RECRUSUL    ON  EB       R$  000000000008500000000000870000000000076000000000007900000000000780000000000077000000000007800603000000000000757600000000000060423800000000000000009999123100000010000000000000BRRCSLACNOR4135
012026030402RCSL4       010RECRUSUL    PN  EB       R$  000000000017500000000001850000000000130000000000016500000000001300000000000129000000000013007326000000000017430300000000002884806100000000000000009999123100000010000000000000BRRCSLACNPR1135
012026030402RDOR3       010REDE D OR   ON      NM   R$  000000000392000000000039900000000003865000000000392900000000039320000000003929000000000393619870000000000005710400000000022436910900000000000000009999123100000010000000000000BRRDORACNOR8119
012026030402UCAS3       010UNICASA     ON      NM   R$  000000000015200000000001550000000000150000000000015200000000001500000000000151000000000015200063000000000000025100000000000003827100000000000000009999123100000010000000000000BRUCASACNOR1114
012026030402UGPA3       010ULTRAPAR    ON      NM   R$  000000000257600000000026040000000002545000000000257900000000025860000000002581000000000258813066000000000006616000000000017063176200000000000000009999123100000010000000000000BRUGPAACNOR8159
012026030402UNIP3       010UNIPAR      ON           R$  000000000637100000000064800000000006325000000000638500000000064800000000006410000000000666600031000000000000003500000000000022349800000000000000009999123100000010000000000000BRUNIPACNOR7210
012026030402UNIP6       010UNIPAR      PNB          R$  000000000676800000000070240000000006750000000000693900000000069760000000006940000000000698302124000000000000598000000000004150087300000000000000009999123100000010000000000000BRUNIPACNPB8210
012026030402IFCM3       010INFRACOMM   ON      NM   R$  000000000008300000000001070000000000083000000000009500000000001040000000000101000000000010400924000000000001733700000000000164717600000000000000009999123100000010000000000000BRIFCMACNOR8109
012026030402IGTI11      010IGUATEMI S.AUNT     N1   R$  000000000285000000000028980000000002835000000000286600000000028830000000002871000000000288308655000000000001620700000000004646137200000000000000009999123100000010000000000000BRIGTICDAM16109
012026030402IGTI3       010IGUATEMI S.AON      N1   R$  000000000033200000000003330000000000329000000000033000000000003290000000000328000000000032900038000000000000019700000000000006501400000000000000009999123100000010000000000000BRIGTIACNOR8109
012026030402IGTI4       010IGUATEMI S.APN      N1   R$  000000000126700000000012670000000001267000000000126700000000012670000000001272000000000139900001000000000000000100000000000000126700000000000000009999123100000010000000000000BRIGTIACNPR5109
012026030402MGEL4       010MANGELS INDLPN           R$  000000000063000000000006300000000000614000000000061600000000006140000000000613000000000062800007000000000000001200000000000000739600000000000000009999123100000010000000000000BRMGELACNPR3147
012026030402MGLU3       010MAGAZ LUIZA ON      NM   R$  000000000092500000000009550000000000912000000000093300000000009530000000000953000000000095418956000000000017524500000000016357908200000000000000009999123100000010000000000000BRMGLUACNOR2130
012026030402PLPL3       010PLANOEPLANO ON      NM   R$  000000000148300000000014940000000001403000000000143200000000014200000000001418000000000142006125000000000001528200000000002189270800000000000000009999123100000010000000000000BRPLPLACNOR5106
012026030402PNVL3       010DIMED       ON      NM   R$  000000000152900000000015900000000001522000000000156700000000015680000000001568000000000157603885000000000000986900000000001546890900000000000000009999123100000010000000000000BRPNVLACNOR9213
012026030402POMO3       010MARCOPOLO   ON      N2   R$  000000000062600000000006350000000000620000000000062700000000006330000000000630000000000063300946000000000000656900000000000412504100000000000000009999123100000010000000000000BRPOMOACNOR0105
012026030402POMO4       010MARCOPOLO   PN      N2   R$  000000000066900000000006790000000000660000000000066700000000006690000000000668000000000066914700000000000013935500000000009302755900000000000000009999123100000010000000000000BRPOMOACNPR7105
012026030402POSI3       010POSITIVO TECON      NM   R$  000000000039800000000004060000000000398000000000040200000000004030000000000402000000000040301294000000000000595600000000000239782100000000000000009999123100000010000000000000BRPOSIACNOR9118
012026030402RANI3       010IRANI       ON      NM   R$  000000000097100000000009880000000000966000000000097800000000009850000000000979000000000098503462000000000000864400000000000845913400000000000000009999123100000010000000000000BRRANIACNOR5079
012026030402SCAR3       010SAO CARLOS  ON      NM   R$  000000000144800000000014920000000001435000000000144800000000014920000000001449000000000149200083000000000000022300000000000032302200000000000000009999123100000010000000000000BRSCARACNOR7133
012026030402SEER3       010SER EDUCA   ON      NM   R$  000000000118600000000012120000000001176000000000119000000000011800000000001179000000000118105485000000000000913800000000001087854400000000000000009999123100000010000000000000BRSEERACNOR5120
012026030402SEQL3       010SEQUOIA LOG ON      NM   R$  000000000002900000000000320000000000029000000000003000000000000300000000000030000000000003100296000000000000886000000000000026800900000000000000009999123100000010000000000000BRSEQLACNOR2108
012026030402DASA3       010DASA        ON      NM   R$  000000000037300000000004020000000000373000000000039000000000003920000000000391000000000039202547000000000001887300000000000736996400000000000000009999123100000010000000000000BRDASAACNOR1123
012026030402DESK3       010DESKTOP     ON      NM   R$  000000000134000000000014410000000001340000000000141500000000014410000000001430000000000144205585000000000001178100000000001667356800000000000000009999123100000010000000000000BRDESKACNOR2106
012026030402DEXP3       010DEXXOS PAR  ON      N1   R$  000000000074000000000007590000000000740000000000075100000000007550000000000751000000000075600382000000000000056200000000000042211700000000000000009999123100000010000000000000BRDEXPACNOR1109
012026030402DEXP4       010DEXXOS PAR  PN      N1   R$  000000000073500000000007410000000000729000000000073600000000007400000000000740000000000076900019000000000000006400000000000004711500000000000000009999123100000010000000000000BRDEXPACNPR8109
012026030402EALT3       010ACO ALTONA  ON           R$  000000000141500000000014550000000001415000000000142300000000014550000000001419000000000145000003000000000000000500000000000000711800000000000000009999123100000010000000000000BREALTACNOR4140
012026030402EALT4       010ACO ALTONA  PN           R$  000000000142700000000014850000000001426000000000146700000000014850000000001451000000000148500065000000000000019900000000000029204100000000000000009999123100000010000000000000BREALTACNPR1140
012026030402AZEV3       010AZEVEDO     ON           R$  000000000002800000000000280000000000026000000000002700000000000270000000000026000000000002700147000000000000435200000000000011771400000000000000009999123100000010000000000000BRAZEVACNOR0123
012026030402AZEV4       010AZEVEDO     PN           R$  000000000002200000000000230000000000019000000000002000000000000200000000000019000000000002000902000000000018075600000000000369514500000000000000009999123100000010000000000000BRAZEVACNPR7123
012026030402AZTE3       010AZT ENERGIA ON           R$  000000000003000000000000300000000000028000000000002800000000000280000000000027000000000002800286000000000001696300000000000048167600000000000000009999123100000010000000000000BRAZTEACNOR4101
012026030402AZUL53      010AZUL        ON  P   N2   R$  000000002210000000000227990000000021600000000002200000000000217700000000021770000000002180000848000000009368000000000000000206183911000000000000009999123110000000000000000000BRAZULA01OR8102
012026030402FIQE3       010UNIFIQUE    ON      NM   R$  000000000053100000000005440000000000531000000000053600000000005340000000000531000000000053400712000000000000452700000000000242862700000000000000009999123100000010000000000000BRFIQEACNOR5112
012026030402FLRY3       010FLEURY      ON      NM   R$  000000000164700000000016810000000001647000000000166200000000016580000000001658000000000165906797000000000002674300000000004446927900000000000000009999123100000010000000000000BRFLRYACNOR5143
012026030402GOLL54      010GOL         PN *P        R$  000000000115000000000011500000000001133000000000114200000000011410000000001141000000000114700107000000000002716000000000000003103245000000000000009999123100010000000000000000BRGOLLA01PR5100
012026030402GRND3       010GRENDENE    ON      NM   R$  000000000049800000000005030000000000491000000000049600000000004960000000000495000000000049709606000000000008989200000000004461550600000000000000009999123100000010000000000000BRGRNDACNOR3182
012026030402GSHP3       010GENERALSHOPPON           R$  000000000029600000000002960000000000294000000000029400000000002940000000000293000000000035000004000000000000000400000000000000117900000000000000009999123100000010000000000000BRGSHPACNOR7102
012026030402AZZA3       010AZZAS 2154  ON      NM   R$  000000000254700000000025790000000002510000000000254900000000025510000000002550000000000256311180000000000002692300000000006863736700000000000000009999123100000010000000000000BRAZZAACNOR9104
012026030402BBDC3       010BRADESCO    ON  EJ  N1   R$  000000000178100000000017890000000001738000000000176200000000017700000000001768000000000177109400000000000005231200000000009217595700000000000000009999123100000010000000000000BRBBDCACNOR1798
012026030402BBDC4       010BRADESCO    PN  EJ  N1   R$  000000000205500000000020690000000002015000000000204100000000020490000000002045000000000205037061000000000064157000000000130957663700000000000000009999123100000010000000000000BRBBDCACNPR8798
012026030402VALE3       010VALE        ON      NM   R$  000000000853900000000085630000000008358000000000844100000000084090000000008400000000000840943892000000000017605800000000148611118300000000000000009999123100000010000000000000BRVALEACNOR0219
012026030402ISAE3       010ISA ENERGIA ON  EJ  N1   R$  000000000340600000000034060000000003220000000000332600000000033110000000003264000000000332200047000000000000006500000000000021619200000000000000009999123100000010000000000000BRISAEACNOR2109
012026030402ISAE4       010ISA ENERGIA PN  EJ  N1   R$  000000000281000000000028520000000002803000000000283100000000028440000000002835000000000284405611000000000001452100000000004111552200000000000000009999123100000010000000000000BRISAEACNPR9109
012026030402CYRE3       010CYRELA REALTON      NM   R$  000000000296300000000030420000000002948000000000298300000000029710000000002970000000000297117781000000000005346400000000015952048100000000000000009999123100000010000000000000BRCYREACNOR7143
012026030402CYRE4       010CYRELA REALTPN      NM   R$  000000000282500000000028610000000002802000000000282100000000028060000000002804000000000280601786000000000000380700000000001073968000000000000000009999123100000010000000000000BRCYREACNPR4114
012026030402ESPA3       010ESPACOLASER ON      NM   R$  000000000011100000000001150000000000111000000000011200000000001120000000000111000000000011200505000000000000306400000000000034551600000000000000009999123100000010000000000000BRESPAACNOR7105
012026030402ETER3       010ETERNIT     ON      NM   R$  000000000039200000000004020000000000392000000000039600000000003980000000000398000000000040300269000000000000085100000000000033738000000000000000009999123100000010000000000000BRETERACNOR3246
012026030402EUCA4       010EUCATEX     PN      N1   R$  000000000205000000000021860000000002049000000000213300000000021820000000002142000000000218200276000000000000035200000000000075100500000000000000009999123100000010000000000000BREUCAACNPR8046
012026030402JSLG3       010JSL         ON      NM   R$  000000000078700000000008160000000000785000000000080200000000008150000000000815000000000081603050000000000001045900000000000839017000000000000000009999123100000010000000000000BRJSLGACNOR2123
012026030402KEPL3       010KEPLER WEBERON      NM   R$  000000000085100000000008600000000000815000000000083500000000008410000000000841000000000084207815000000000004475200000000003738266300000000000000009999123100000010000000000000BRKEPLACNOR1069
012026030402EVEN3       010EVEN        ON      NM   R$  000000000077700000000008110000000000776000000000079400000000007900000000000790000000000079503419000000000000922000000000000732100100000000000000009999123100000010000000000000BREVENACNOR8121
012026030402EZTC3       010EZTEC       ON      NM   R$  000000000151800000000015470000000001505000000000152000000000015150000000001515000000000152006289000000000001782000000000002710205100000000000000009999123100000010000000000000BREZTCACNOR0132
012026030402KLBN11      010KLABIN S/A  UNT     N2   R$  000000000198800000000020120000000001950000000000198400000000020000000000001998000000000200010502000000000004954700000000009830131800000000000000009999123100000010000000000000BRKLBNCDAM18151
012026030402KLBN3       010KLABIN S/A  ON      N2   R$  000000000040000000000004030000000000391000000000039600000000004000000000000400000000000040300992000000000000687000000000000272326100000000000000009999123100000010000000000000BRKLBNACNOR2179
012026030402KLBN4       010KLABIN S/A  PN      N2   R$  000000000040000000000004020000000000390000000000039600000000003990000000000399000000000040003017000000000002254300000000000893237300000000000000009999123100000010000000000000BRKLBNACNPR9179
012026030402MILS3       010MILLS       ON      NM   R$  000000000148600000000015160000000001486000000000150500000000015090000000001499000000000151002204000000000000569800000000000857603500000000000000009999123100000010000000000000BRMILSACNOR2132
012026030402MLAS3       010MULTILASER  ON      NM   R$  000000000012900000000001310000000000128000000000012900000000001280000000000128000000000012900285000000000000412500000000000053314800000000000000009999123100000010000000000000BRMLASACNOR9102
012026030402MNDL3       010MUNDIAL     ON           R$  000000000178100000000017810000000001780000000000178000000000017800000000001710000000000178100002000000000000000200000000000000356100000000000000009999123100000010000000000000BRMNDLACNOR4109
012026030402MNPR3       010MINUPAR     ON           R$  000000000044200000000004470000000000435000000000043900000000004420000000000435000000000044200028000000000000009600000000000004214700000000000000009999123100000010000000000000BRMNPRACNOR5123
012026030402MOTV3       010MOTIVA SA   ON      NM   R$  000000000160500000000016390000000001592000000000162200000000016360000000001632000000000163718412000000000011067900000000017956588900000000000000009999123100000010000000000000BRMOTVACNOR7102
012026030402RECV3       010PETRORECSA  ON      NM   R$  000000000124400000000012530000000001215000000000123800000000012500000000001247000000000125009554000000000005423200000000006716124200000000000000009999123100000010000000000000BRRECVACNOR3110
012026030402REDE3       010REDE ENERGIAON           R$  000000000063200000000006320000000000632000000000063200000000006320000000000629000000000063300002000000000000000200000000000000126400000000000000009999123100000010000000000000BRREDEACNOR7134
012026030402RENT3       010LOCALIZA    ON      NM   R$  000000000499800000000050700000000004944000000000502000000000050360000000005030000000000503626243000000000006292300000000031589000300000000000000009999123100000010000000000000BRRENTACNOR4205
012026030402RENT4       010LOCALIZA    PN      NM   R$  000000000476200000000048580000000004746000000000479100000000047950000000004792000000000479503393000000000000835000000000004001249700000000000000009999123100000010000000000000BRRENTACNPR1100
012026030402USIM3       010USIMINAS    ON      N1   R$  000000000067400000000006910000000000668000000000068100000000006860000000000683000000000068600497000000000000187000000000000127405600000000000000009999123100000010000000000000BRUSIMACNOR3167
012026030402USIM5       010USIMINAS    PNA     N1   R$  000000000067500000000006890000000000667000000000067900000000006810000000000680000000000068109904000000000008747600000000005939966300000000000000009999123100000010000000000000BRUSIMACNPA6172
012026030402WEGE3       010WEG         ON      NM   R$  000000000480000000000048220000000004682000000000473200000000047340000000004734000000000474029331000000000006449100000000030520181100000000000000009999123100000010000000000000BRWEGEACNOR0234
012026030402VLID3       010VALID       ON      NM   R$  000000000215700000000021660000000002125000000000213300000000021260000000002126000000000213201721000000000000274000000000000584505900000000000000009999123100000010000000000000BRVLIDACNOR5148
012026030402VSTE3       010VESTE       ON      NM   R$  000000000038900000000003980000000000389000000000039400000000003970000000000391000000000039700006000000000000000600000000000000236700000000000000009999123100000010000000000000BRVSTEACNOR5104
012026030402VTRU3       010VITRUEDUCA  ON      NM   R$  000000000143700000000014520000000001382000000000139800000000013900000000001383000000000139002271000000000000375000000000000524418200000000000000009999123100000010000000000000BRVTRUACNOR3101
012026030402VULC3       010VULCABRAS   ON      NM   R$  000000000182400000000019070000000001809000000000185100000000018190000000001816000000000182409877000000000002951300000000005465123000000000000000009999123100000010000000000000BRVULCACNOR2181
012026030402VVEO3       010VIVEO       ON      NM   R$  000000000014000000000001440000000000122000000000012900000000001220000000000122000000000012303174000000000004536600000000000585857800000000000000009999123100000010000000000000BRVVEOACNOR0104
012026030402WDCN3       010WDC NETWORKSON      NM   R$  000000000025900000000002600000000000253000000000025500000000002580000000000253000000000025800038000000000000020500000000000005235600000000000000009999123100000010000000000000BRWDCNACNOR2100
012026030402SYNE3       010SYN PROP TECON      NM   R$  000000000046700000000004780000000000467000000000047100000000004740000000000474000000000047901325000000000000289600000000000136665000000000000000009999123100000010000000000000BRSYNEACNOR2107
012026030402TAEE11      010TAESA       UNT     N2   R$  000000000426300000000043410000000004243000000000431000000000043190000000004319000000000433005580000000000001388700000000005985963000000000000000009999123100000010000000000000BRTAEECDAM10153
012026030402TAEE3       010TAESA       ON      N2   R$  000000000139000000000014360000000001390000000000142300000000014210000000001420000000000143400264000000000000046700000000000066472600000000000000009999123100000010000000000000BRTAEEACNOR9153
012026030402TAEE4       010TAESA       PN      N2   R$  000000000141900000000014530000000001419000000000143900000000014410000000001441000000000145000484000000000000113000000000000162647200000000000000009999123100000010000000000000BRTAEEACNPR6153
012026030402PCAR3       010P.ACUCAR-CBDON      NM   R$  000000000026500000000003010000000000264000000000028500000000002970000000000296000000000029710250000000000026853700000000007653936000000000000000009999123100000010000000000000BRPCARACNOR3170
012026030402PFRM3       010PROFARMA    ON      NM   R$  000000000090300000000009230000000000896000000000090900000000009050000000000905000000000091400872000000000000196200000000000178425100000000000000009999123100000010000000000000BRPFRMACNOR1122
012026030402PGMN3       010PAGUE MENOS ON      NM   R$  000000000064400000000006710000000000644000000000065200000000006620000000000662000000000066309651000000000018546300000000012100781000000000000000009999123100000010000000000000BRPGMNACNOR8106
012026030402DIRR3       010DIRECIONAL  ON      NM   R$  000000000154300000000016150000000001534000000000155900000000015400000000001539000000000154520513000000000010158700000000015840995600000000000000009999123100000010000000000000BRDIRRACNOR0123
012026030402DMVF3       010D1000VFARMA ON      NM   R$  000000000067600000000006920000000000671000000000068000000000006760000000000676000000000069000255000000000000040000000000000027216500000000000000009999123100000010000000000000BRDMVFACNOR9100
012026030402DOHL4       010DOHLER      PN           R$  000000000038200000000003820000000000363000000000036600000000003790000000000370000000000038000006000000000000001300000000000000476200000000000000009999123100000010000000000000BRDOHLACNPR9067
012026030402DOTZ3       010DOTZ SA     ON      NM   R$  000000000030100000000003110000000000293000000000030300000000003010000000000299000000000030300039000000000000006100000000000001853500000000000000009999123100000010000000000000BRDOTZACNOR7101
012026030402GMAT3       010GRUPO MATEUSON      NM   R$  000000000055200000000005620000000000539000000000054800000000005410000000000541000000000054210012000000000009292500000000005093234300000000000000009999123100000010000000000000BRGMATACNOR7109
012026030402MATD3       010MATER DEI   ON      NM   R$  000000000060500000000006140000000000592000000000060400000000006110000000000605000000000061201001000000000000195400000000000118207300000000000000009999123100000010000000000000BRMATDACNOR4106
012026030402MBRF3       010MARFRIG     ON      NM   R$  000000000200300000000020230000000001907000000000194800000000019480000000001946000000000195012689000000000009000500000000017539947400000000000000009999123100000010000000000000BRMBRFACNOR1100
012026030402NEOE3       010NEOENERGIA  ON      NM   R$  000000000329000000000032900000000003278000000000328100000000032820000000003281000000000328201962000000000002116800000000006946751300000000000000009999123100000010000000000000BRNEOEACNOR3127
012026030402NGRD3       010NEOGRID     ON      NM   R$  000000000260500000000026400000000002602000000000261600000000026200000000002610000000000264500030000000000000005100000000000013345700000000000000009999123100000010000000000000BRNGRDACNOR3106
012026030402NORD3       010NORDON MET  ON           R$  000000000040100000000004010000000000400000000000040000000000004000000000000390000000000041000002000000000000000300000000000000120200000000000000009999123100000010000000000000BRNORDACNOR7135
012026030402NUTR3       010NUTRIPLANT  ON      MA   R$  000000000021200000000002550000000000212000000000023200000000002550000000000225000000000025500023000000000000004700000000000001091800000000000000009999123100000010000000000000BRNUTRACNOR0104
012026030402OBTC3       010ORANJEBTC   ON           R$  000000000078000000000007800000000000741000000000075500000000007410000000000741000000000074801949000000000000353600000000000267212100000000000000009999123100000010000000000000BROBTCACNOR0100
012026030402ODPV3       010ODONTOPREV  ON      NM   R$  000000000136600000000013840000000001330000000000136600000000013760000000001375000000000137714617000000000019405900000000026520593700000000000000009999123100000010000000000000BRODPVACNOR4213
012026030402OFSA3       010OUROFINO S/AON      NM   R$  000000000247300000000024750000000002425000000000245300000000024260000000002421000000000245900011000000000000006700000000000016435700000000000000009999123100000010000000000000BROFSAACNOR7122
012026030402SAPR11      010SANEPAR     UNT     N2   R$  000000000428200000000043180000000004205000000000424000000000042260000000004225000000000422610968000000000002296400000000009737496500000000000000009999123100000010000000000000BRSAPRCDAM13121
012026030402SAPR3       010SANEPAR     ON      N2   R$  000000000100100000000010010000000000960000000000097000000000009630000000000963000000000096401114000000000000319500000000000309951800000000000000009999123100000010000000000000BRSAPRACNOR9162
012026030402SAPR4       010SANEPAR     PN      N2   R$  000000000082600000000008280000000000808000000000081700000000008170000000000817000000000081903806000000000001974600000000001614970100000000000000009999123100000010000000000000BRSAPRACNPR6162
012026030402FRAS3       010FRAS-LE     ON      N1   R$  000000000242200000000024470000000002417000000000243200000000024360000000002436000000000243700940000000000000178400000000000433939600000000000000009999123100000010000000000000BRFRASACNOR0163
012026030402HAGA4       010HAGA S/A    PN           R$  000000000014400000000001490000000000144000000000014700000000001490000000000145000000000014900029000000000000021200000000000003118300000000000000009999123100000010000000000000BRHAGAACNPR4103
012026030402HAPV3       010HAPVIDA     ON      NM   R$  000000000101800000000010360000000000995000000000101000000000009960000000000996000000000100015944000000000012721700000000012850209600000000000000009999123100000010000000000000BRHAPVACNOR4119
012026030402ALLD3       010ALLIED      ON      NM   R$  000000000071500000000007240000000000714000000000071800000000007200000000000719000000000072002711000000000000480000000000000344701500000000000000009999123100000010000000000000BRALLDACNOR3110
012026030402ALOS3       010ALLOS       ON      NM   R$  000000000316700000000032190000000003167000000000319100000000032020000000003201000000000320309112000000000003563100000000011371717200000000000000009999123100000010000000000000BRALOSACNOR5119
012026030402ALPA3       010ALPARGATAS  ON      N1   R$  000000000122100000000012590000000001219000000000122900000000012330000000001233000000000123800027000000000000005700000000000007010900000000000000009999123100000010000000000000BRALPAACNOR0234
012026030402ALPA4       010ALPARGATAS  PN      N1   R$  000000000139700000000014450000000001372000000000139800000000013900000000001383000000000139007146000000000002031300000000002840959400000000000000009999123100000010000000000000BRALPAACNPR7235
012026030402BAZA3       010AMAZONIA    ON           R$  000000000871700000000088000000000008685000000000873500000000087560000000008716000000000880100052000000000000009400000000000082111800000000000000009999123100000010000000000000BRBAZAACNOR0180
012026030402BBAS3       010BRASIL      ON  ERJ NM   R$  000000000260100000000026470000000002575000000000259800000000025940000000002593000000000259427644000000000014597900000000037939578100000000000000009999123100000010000000000000BRBBASACNOR3336
012026030402BBSE3       010BBSEGURIDADEON      NM   R$  000000000347500000000035170000000003423000000000344600000000034370000000003436000000000344314227000000000005358400000000018467596700000000000000009999123100000010000000000000BRBBSEACNOR5128
012026030402CSED3       010CRUZEIRO EDUON      NM   R$  000000000062800000000006620000000000628000000000064700000000006450000000000645000000000064901727000000000000381200000000000246670000000000000000009999123100000010000000000000BRCSEDACNOR9107
012026030402CSMG3       010COPASA      ON      NM   R$  000000000540100000000054930000000005337000000000540900000000054510000000005440000000000546311522000000000002023100000000010943772700000000000000009999123100000010000000000000BRCSMGACNOR5183
012026030402EKTR4       010ELEKTRO     PN           R$  000000000390100000000039010000000003700000000000386100000000038990000000003804000000000388900020000000000000003300000000000012743300000000000000009999123100000010000000000000BREKTRACNPR7174
012026030402EMAE4       010EMAE        PN           R$  000000000475200000000048440000000004395000000000461900000000046820000000004681000000000473700165000000000000022800000000000105335600000000000000009999123100000010000000000000BREMAEACNPR1128
012026030402EMBJ3       010EMBRAER     ON      NM   R$  000000000922700000000092740000000009101000000000920000000000092440000000009230000000000924511214000000000002757000000000025365994500000000000000009999123100000010000000000000BREMBJACNOR1102
012026030402GOAU3       010GERDAU MET  ON      N1   R$  000000000087400000000008780000000000859000000000086600000000008670000000000861000000000086700351000000000000064700000000000056048300000000000000009999123100000010000000000000BRGOAUACNOR1274
012026030402GOAU4       010GERDAU MET  PN      N1   R$  000000000089300000000008950000000000880000000000088700000000008900000000000889000000000089109276000000000006599700000000005858587000000000000000009999123100000010000000000000BRGOAUACNPR8275
012026030402CSNA3       010SID NACIONALON           R$  000000000080100000000008090000000000790000000000080200000000008000000000000800000000000080212795000000000009134600000000007328954600000000000000009999123100000010000000000000BRCSNAACNOR6264
012026030402GEPA3       010GER PARANAP ON           R$  000000000330100000000033010000000003301000000000330100000000033010000000003052000000000338900001000000000000000200000000000000660200000000000000009999123100000010000000000000BRGEPAACNOR2158
012026030402GEPA4       010GER PARANAP PN           R$  000000000353800000000035380000000003500000000000351600000000035000000000003480000000000359900005000000000000001100000000000003868600000000000000009999123100000010000000000000BRGEPAACNPR9165
012026030402GFSA3       010GAFISA      ON      NM   R$  000000000019600000000002010000000000185000000000019000000000001860000000000185000000000018601220000000000001722700000000000327855100000000000000009999123100000010000000000000BRGFSAACNOR3127
012026030402GGBR3       010GERDAU      ON      N1   R$  000000000170200000000017330000000001702000000000171900000000017320000000001724000000000173200131000000000000022800000000000039211500000000000000009999123100000010000000000000BRGGBRACNOR1198
012026030402GGBR4       010GERDAU      PN      N1   R$  000000000199100000000019930000000001964000000000198000000000019860000000001985000000000198614158000000000007907000000000015658257300000000000000009999123100000010000000000000BRGGBRACNPR8198
012026030402IBOV11      010IBOVESPA    IBO/         R$  000001852250000000185225000000018522500000001852250000000185225000000000000000000000000000000044000000000000139833000000025900567425000000000000009999123100001000000000000000BRIBOVINDM18016
012026030402ITUB3       010ITAUUNIBANCOON  EJ  N1   R$  000000000424000000000042650000000004182000000000423100000000042340000000004234000000000425305027000000000001040300000000004401860800000000000000009999123100000010000000000000BRITUBACNOR4366
012026030402ITUB4       010ITAUUNIBANCOPN  EJ  N1   R$  000000000452400000000045490000000004452000000000449600000000045010000000004500000000000451341403000000000027146100000000122066190800000000000000009999123100000010000000000000BRITUBACNPR1366
012026030402LUPA3       010LUPATECH    ON      NM   R$  000000000012000000000001210000000000117000000000011900000000001200000000000120000000000012100042000000000000192300000000000022932000000000000000009999123100000010000000000000BRLUPAACNOR8112
012026030402LUXM4       010TREVISA     PN           R$  000000000041300000000004200000000000413000000000041300000000004200000000000405000000000042000006000000000000002100000000000000868000000000000000009999123100000010000000000000BRLUXMACNPR4053
012026030402LWSA3       010LWSA        ON      NM   R$  000000000035700000000003800000000000350000000000037000000000003780000000000377000000000037813404000000000014291500000000005288335200000000000000009999123100000010000000000000BRLWSAACNOR8106
012026030402MWET4       010WETZEL S/A  PN           R$  000000000116700000000012000000000001167000000000117000000000011990000000001050000000000120000003000000000000001700000000000001990400000000000000009999123100000010000000000000BRMWETACNPR3118
012026030402MYPK3       010IOCHP-MAXIONON      NM   R$  000000000099500000000010120000000000973000000000098400000000009800000000000980000000000098304401000000000001556200000000001531369300000000000000009999123100000010000000000000BRMYPKACNOR7158
012026030402NATU3       010NATURA      ON      NM   R$  000000000087200000000009010000000000871000000000089100000000009010000000000899000000000090112889000000000009345000000000008330482800000000000000009999123100000010000000000000BRNATUACNOR6137
012026030402PTBL3       010PORTOBELLO  ON      NM   R$  000000000032100000000003290000000000319000000000032400000000003190000000000319000000000032400200000000000000129200000000000041907400000000000000009999123100000010000000000000BRPTBLACNOR8132
012026030402PTNT3       010PETTENATI   ON           R$  000000000084500000000008690000000000840000000000084100000000008690000000000845000000000086900007000000000000005800000000000004877900000000000000009999123100000010000000000000BRPTNTACNOR6044
012026030402PTNT4       010PETTENATI   PN           R$  000000000083500000000008400000000000835000000000083700000000008400000000000840000000000084400026000000000000022200000000000018597300000000000000009999123100000010000000000000BRPTNTACNPR3049
012026030402QUAL3       010QUALICORP   ON      NM   R$  000000000019200000000002060000000000192000000000020000000000002010000000000201000000000020206927000000000006673600000000001339191800000000000000009999123100000010000000000000BRQUALACNOR6122
012026030402RADL3       010RAIADROGASILON      NM   R$  000000000252500000000025360000000002412000000000246100000000024530000000002452000000000245749601000000000018365500000000045208315400000000000000009999123100000010000000000000BRRADLACNOR0165
012026030402HBOR3       010HELBOR      ON      NM   R$  000000000029100000000003110000000000291000000000030000000000003030000000000303000000000030701566000000000001531200000000000460563200000000000000009999123100000010000000000000BRHBORACNOR3120
012026030402HBRE3       010HBR REALTY  ON      NM   R$  000000000030400000000003070000000000300000000000030100000000003030000000000301000000000030300929000000000000802700000000000242285900000000000000009999123100000010000000000000BRHBREACNOR4101
012026030402HBSA3       010HIDROVIAS   ON      NM   R$  000000000041700000000004390000000000415000000000043400000000004380000000000437000000000043803935000000000002380900000000001033412000000000000000009999123100000010000000000000BRHBSAACNOR0102
012026030402ITSA3       010ITAUSA      ON  EJ  N1   R$  000000000136000000000013960000000001360000000000137600000000013830000000001383000000000139300437000000000000200400000000000275895700000000000000009999123100000010000000000000BRITSAACNOR0456
012026030402ITSA4       010ITAUSA      PN  EJ  N1   R$  000000000138400000000013950000000001363000000000138300000000013870000000001387000000000138917051000000000024899500000000034452082900000000000000009999123100000010000000000000BRITSAACNPR7456
012026030402AURE3       010AUREN       ON      NM   R$  000000000116000000000012130000000001155000000000118900000000012040000000001200000000000120411323000000000006016000000000007154981600000000000000009999123100000010000000000000BRAUREACNOR9105
012026030402AVLL3       010ALPHAVILLE  ON      NM   R$  000000000007800000000000790000000000076000000000007700000000000770000000000077000000000007800014000000000000006300000000000000488200000000000000009999123100000010000000000000BRAVLLACNOR5103
012026030402AXIA3       010AXIA ENERGIAON  ATZ N1   R$  000000000609900000000061720000000006009000000000610300000000061340000000006130000000000613433513000000000009995600000000061006167700000000000000009999123100000010000000000000BRAXIAACNOR0103
012026030402AXIA6       010AXIA ENERGIAPNB     N1   R$  000000000661100000000067300000000006592000000000666000000000066870000000006687000000000670005706000000000001218600000000008117034600000000000000009999123100000010000000000000BRAXIAACNPB1103
012026030402AXIA7       010AXIA ENERGIAPNC     N1   R$  000000000588500000000059680000000005820000000000588600000000059330000000005929000000000594209830000000000002255800000000013279223200000000000000009999123100000010000000000000BRAXIAACNPC9100
012026030402VITT3       010VITTIA      ON      NM   R$  000000000041700000000004260000000000412000000000041900000000004260000000000422000000000042600752000000000000161200000000000067656800000000000000009999123100000010000000000000BRVITTACNOR4113
012026030402VIVA3       010VIVARA S.A. ON      NM   R$  000000000311600000000031710000000003052000000000312600000000031350000000003119000000000313512511000000000003341400000000010445813700000000000000009999123100000010000000000000BRVIVAACNOR0109
012026030402SHOW3       010TIME FOR FUNON      NM   R$  000000000044700000000004800000000000445000000000046000000000004530000000000452000000000046100397000000000000089500000000000041237400000000000000009999123100000010000000000000BRSHOWACNOR7106
012026030402SHUL4       010SCHULZ      PN           R$  000000000054300000000005460000000000530000000000053500000000005330000000000533000000000053900558000000000000439100000000000235032600000000000000009999123100000010000000000000BRSHULACNPR4163
012026030402SIMH3       010SIMPAR      ON      NM   R$  000000000120500000000012290000000001177000000000120500000000012120000000001210000000000121308534000000000004339100000000005230213100000000000000009999123100000010000000000000BRSIMHACNOR0110
012026030402SLCE3       010SLC AGRICOLAON      NM   R$  000000000163300000000016450000000001616000000000163100000000016310000000001631000000000164004391000000000001653000000000002696790500000000000000009999123100000010000000000000BRSLCEACNOR2128
012026030402TKNO4       010TEKNO       PN           R$  000000002180100000000220000000000021800000000002188300000000220000000000021811000000002240000004000000000000001200000000000026260200000000000000009999123100000010000000000000BRTKNOACNPR5080
012026030402ATED3       010ATOM EDUC   ON           R$  000000000020000000000002120000000000200000000000020700000000002030000000000202000000000020900391000000000000048600000000000010075800000000000000009999123100000010000000000000BRATEDACNOR1100
012026030402AUAU3       010PETZCOBASI  ON      NM   R$  000000000030800000000003180000000000305000000000031200000000003140000000000314000000000031504414000000000003539000000000001107548800000000000000009999123100000010000000000000BRAUAUACNOR1100
012026030402VIVR3       010VIVER       ON  ES  NM   R$  000000000004600000000000480000000000044000000000004500000000000450000000000044000000000004500120000000000000128100000000000005822600000000000000009999123100000010000000000000BRVIVRACNOR4126
012026030402VIVT3       010TELEF BRASILON  EJ       R$  000000000419300000000043010000000004158000000000424600000000042610000000004261000000000426315836000000000003873500000000016450403300000000000000009999123100000010000000000000BRVIVTACNOR0200
012026030402SANB11      010SANTANDER BRUNT          R$  000000000330300000000033500000000003283000000000332700000000033420000000003339000000000334309831000000000002727700000000009075961400000000000000009999123100000010000000000000BRSANBCDAM13172
012026030402SANB3       010SANTANDER BRON           R$  000000000159200000000016500000000001592000000000163600000000016400000000001640000000000165200202000000000000033000000000000053998400000000000000009999123100000010000000000000BRSANBACNOR8179
012026030402SANB4       010SANTANDER BRPN           R$  000000000164700000000016980000000001647000000000168600000000016980000000001690000000000169800211000000000000044500000000000075058700000000000000009999123100000010000000000000BRSANBACNPR5179
012026030402VBBR3       010VIBRA       ON      NM   R$  000000000300900000000030500000000002986000000000302700000000030300000000003024000000000303215066000000000005562900000000016839249000000000000000009999123100000010000000000000BRVBBRACNOR1114
012026030402TOKY3       010GRUPO TOKY  ON      NM   R$  000000000005400000000000570000000000050000000000005400000000000500000000000050000000000005200159000000000001900000000000000103119000000000000000009999123100000010000000000000BRTOKYACNOR5101
012026030402TOTS3       010TOTVS       ON      NM   R$  000000000370300000000037720000000003684000000000371800000000037100000000003710000000000371816545000000000003722300000000013841625000000000000000009999123100000010000000000000BRTOTSACNOR8150
012026030402TPIS3       010TRIUNFO PARTON      NM   R$  000000000067300000000006990000000000673000000000068500000000006920000000000685000000000069200228000000000000061200000000000041930900000000000000009999123100000010000000000000BRTPISACNOR8120
012026030402TRAD3       010TC          ON      NM   R$  000000000023300000000002370000000000230000000000023200000000002350000000000231000000000023500021000000000000008100000000000001886400000000000000009999123100000010000000000000BRTRADACNOR3102
012026030402TRIS3       010TRISUL      ON      NM   R$  000000000071500000000007370000000000715000000000072300000000007210000000000716000000000072101186000000000000304500000000000220187500000000000000009999123100000010000000000000BRTRISACNOR4122
012026030402BEEF3       010MINERVA     ON      NM   R$  000000000049000000000004920000000000479000000000048300000000004830000000000482000000000048419396000000000014544100000000007034192200000000000000009999123100000010000000000000BRBEEFACNOR6120
012026030402SNSY5       010SANSUY      PNA          R$  000000000026000000000002650000000000248000000000025300000000002560000000000246000000000025600016000000000000003500000000000000886200000000000000009999123100000010000000000000BRSNSYACNPA5111
012026030402SOJA3       010BOA SAFRA   ON      NM   R$  000000000080600000000008140000000000794000000000080200000000008010000000000801000000000080302375000000000001125600000000000902871400000000000000009999123100000010000000000000BRSOJAACNOR9109
012026030402SOND5       010SONDOTECNICAPNA          R$  000000000600000000000060000000000005901000000000593500000000059010000000005801000000000712500003000000000000000300000000000001780600000000000000009999123100000010000000000000BRSONDACNPA8168
012026030402SOND6       010SONDOTECNICAPNB          R$  000000000554600000000055460000000005546000000000554600000000055460000000005546000000000000000003000000000000000500000000000002773000000000000000009999123100000010000000000000BRSONDACNPB6168
012026030402PINE3       010PINE        ON      N2   R$  000000000123900000000012390000000001076000000000111200000000011340000000001100000000000114200097000000000000022300000000000024801200000000000000009999123100000010000000000000BRPINEACNOR1160
012026030402PINE4       010PINE        PN      N2   R$  000000000117800000000011870000000001070000000000111600000000011190000000001116000000000112011251000000000007160900000000007992760400000000000000009999123100000010000000000000BRPINEACNPR8160
012026030402RAIL3       010RUMO S.A.   ON      NM   R$  000000000156000000000015840000000001556000000000157200000000015720000000001571000000000157312965000000000006687800000000010515523900000000000000009999123100000010000000000000BRRAILACNOR9106
012026030402RAIZ4       010RAIZEN      PN      N2   R$  000000000006900000000000700000000000060000000000006300000000000600000000000060000000000006114029000000000084800600000000005381898000000000000000009999123100000010000000000000BRRAIZACNPR6112
012026030402SBFG3       010GRUPO SBF   ON      NM   R$  000000000120600000000012290000000001197000000000120600000000012030000000001203000000000120605018000000000001926200000000002324061300000000000000009999123100000010000000000000BRSBFGACNOR1104
012026030402SBSP3       010SABESP      ON      NM   R$  000000001499000000000152670000000014920000000001507200000000151390000000015133000000001514015529000000000003672600000000055353874500000000000000009999123100000010000000000000BRSBSPACNOR5165
012026030402TASA3       010TAURUS ARMASON      N2   R$  000000000056800000000005970000000000568000000000057800000000005970000000000583000000000059700080000000000000012900000000000007460600000000000000009999123100000010000000000000BRTASAACNOR7106
012026030402TASA4       010TAURUS ARMASPN      N2   R$  000000000057000000000005960000000000570000000000058100000000005890000000000588000000000058901023000000000000414500000000000240930400000000000000009999123100000010000000000000BRTASAACNPR4106
012026030402TCSA3       010TECNISA     ON      NM   R$  000000000015100000000001530000000000148000000000014900000000001480000000000148000000000015000127000000000000056200000000000008425600000000000000009999123100000010000000000000BRTCSAACNOR3112
012026030402BEES3       010BANESTES    ON  EJ       R$  000000000086500000000008790000000000857000000000086600000000008740000000000867000000000087800084000000000000021200000000000018359200000000000000009999123100000010000000000000BRBEESACNOR9416
012026030402BEES4       010BANESTES    PN  EJ       R$  000000000090600000000009060000000000877000000000088600000000008890000000000880000000000089900026000000000000004800000000000004255200000000000000009999123100000010000000000000BRBEESACNPR6341
012026030402TTEN3       0103TENTOS     ON      NM   R$  000000000170000000000017900000000001699000000000176700000000017740000000001770000000000177408853000000000002289500000000004047663800000000000000009999123100000010000000000000BRTTENACNOR0105
012026030402TUPY3       010TUPY        ON      NM   R$  000000000125700000000012960000000001253000000000127500000000012830000000001272000000000128303828000000000000954300000000001216733400000000000000009999123100000010000000000000BRTUPYACNOR1185
012026030402MDIA3       010M.DIASBRANCOON      NM   R$  000000000231000000000023220000000002273000000000229600000000023040000000002300000000000230503289000000000000594600000000001365446000000000000000009999123100000010000000000000BRMDIAACNOR7151
012026030402SUZB3       010SUZANO S.A. ON      NM   R$  000000000572100000000057400000000005559000000000562600000000056500000000005649000000000565020772000000000005629100000000031671286600000000000000009999123100000010000000000000BRSUZBACNOR0135
012026030402VAMO3       010VAMOS       ON      NM   R$  000000000042000000000004400000000000420000000000043300000000004360000000000435000000000043710941000000000016285900000000007065710900000000000000009999123100000010000000000000BRVAMOACNOR7109
012026030402WLMM3       010WLM IND COM ON           R$  000000000239000000000024000000000002390000000000239300000000024000000000001903000000000248900002000000000000000300000000000000718000000000000000009999123100000010000000000000BRWLMMACNOR6125
012026030402WLMM4       010WLM IND COM PN           R$  000000000236300000000024150000000002338000000000235800000000023380000000002300000000000233900018000000000000002900000000000006840800000000000000009999123100000010000000000000BRWLMMACNPR3125
012026030402MDNE3       010MOURA DUBEUXON      NM   R$  000000000313000000000033110000000003130000000000325200000000032820000000003282000000000328907502000000000001816800000000005908532500000000000000009999123100000010000000000000BRMDNEACNOR9104
012026030402MEAL3       010IMC S/A     ON      NM   R$  000000000011400000000001150000000000112000000000011200000000001130000000000112000000000011300075000000000000065700000000000007395800000000000000009999123100000010000000000000BRMEALACNOR9105
012026030402MELK3       010MELNICK     ON      NM   R$  000000000038200000000003910000000000382000000000038600000000003870000000000387000000000039101759000000000000390500000000000150977500000000000000009999123100000010000000000000BRMELKACNOR8116
012026030402ONCO3       010ONCOCLINICASON      NM   R$  000000000022200000000002250000000000209000000000021600000000002190000000000218000000000021907158000000000005931900000000001286597600000000000000009999123100000010000000000000BRONCOACNOR6102
012026030402OPCT3       010OCEANPACT   ON      NM   R$  000000000095100000000009670000000000941000000000095800000000009600000000000955000000000096101698000000000000356200000000000341300800000000000000009999123100000010000000000000BROPCTACNOR0100
012026030402ORVR3       010ORIZON      ON      NM   R$  000000000731300000000073460000000007150000000000720500000000072060000000007206000000000720803954000000000000549500000000003959634800000000000000009999123100000010000000000000BRORVRACNOR0101
012026030402YDUQ3       010YDUQS PART  ON      NM   R$  000000000124000000000012660000000001224000000000123500000000012300000000001228000000000123006362000000000001986400000000002454845200000000000000009999123100000010000000000000BRYDUQACNOR3108
012026030402WEST3       010WESTWING    ON      NM   R$  000000000059500000000005980000000000595000000000059700000000005980000000000597000000000061500002000000000000001500000000000000896700000000000000009999123100000010000000000000BRWESTACNOR3101
012026030402WHRL3       010WHIRLPOOL   ON           R$  000000000043500000000004420000000000434000000000043700000000004420000000000436000000000044200005000000000000000700000000000000306400000000000000009999123100000010000000000000BRWHRLACNOR5135
012026030402WHRL4       010WHIRLPOOL   PN           R$  000000000046500000000004710000000000465000000000046600000000004660000000000465000000000047000032000000000000008000000000000003731100000000000000009999123100000010000000000000BRWHRLACNPR2135
012026030402WIZC3       010WIZ CO      ON      NM   R$  000000000092400000000009540000000000924000000000094500000000009480000000000944000000000094902006000000000000531200000000000502501700000000000000009999123100000010000000000000BRWIZCACNOR5104
012026030402AMAR3       010LOJAS MARISAON      NM   R$  000000000008700000000000890000000000087000000000008700000000000870000000000087000000000008800244000000000000089800000000000007861700000000000000009999123100000010000000000000BRAMARACNOR4115
012026030402AMOB3       010AUTOMOB     ON      NM   R$  000000000130000000000013150000000001297000000000130200000000013010000000001301000000000131300176000000000000060200000000000078392500000000000000009999123100000010000000000000BRAMOBACNOR9101
012026030402ANIM3       010ANIMA       ON      NM   R$  000000000047300000000004910000000000471000000000048100000000004810000000000481000000000048509071000000000008032600000000003870316800000000000000009999123100000010000000000000BRANIMACNOR6110
012026030402ARML3       010ARMAC       ON      NM   R$  000000000057900000000005930000000000574000000000058200000000005800000000000579000000000058401760000000000000580500000000000338367800000000000000009999123100000010000000000000BRARMLACNOR1117
012026030402TECN3       010TECHNOS     ON      NM   R$  000000000080500000000008560000000000800000000000083500000000008420000000000840000000000085000346000000000000085500000000000071419100000000000000009999123100000010000000000000BRTECNACNOR6111
012026030402TELB3       010TELEBRAS    ON           R$  000000000136000000000013600000000001355000000000135700000000013550000000001340000000000136100002000000000000000200000000000000271500000000000000009999123100000010000000000000BRTELBACNOR2142
012026030402TELB4       010TELEBRAS    PN           R$  000000000081300000000008130000000000813000000000081300000000008130000000000800000000000082000001000000000000000200000000000000162600000000000000009999123100000010000000000000BRTELBACNPR9142
012026030402TEND3       010TENDA       ON      NM   R$  000000000293600000000030110000000002860000000000290300000000028600000000002860000000000286509122000000000002085500000000006054315100000000000000009999123100000010000000000000BRTENDACNOR4114
012026030402TFCO4       010TRACK FIELD PN      N2   R$  000000000167800000000017270000000001669000000000169700000000017070000000001707000000000170903248000000000000719900000000001222064700000000000000009999123100000010000000000000BRTFCOACNPR8121
012026030402TGMA3       010TEGMA       ON      NM   R$  000000000397400000000040150000000003886000000000396100000000039800000000003978000000000398002638000000000000837700000000003318883800000000000000009999123100000010000000000000BRTGMAACNOR7150
012026030402TIMS3       010TIM         ON      NM   R$  000000000269900000000027630000000002681000000000273400000000027430000000002743000000000275012655000000000003439800000000009405385900000000000000009999123100000010000000000000BRTIMSACNOR5129
012026030402GGPS3       010GPS         ON      NM   R$  000000000182000000000018460000000001796000000000182300000000018300000000001820000000000183007391000000000001723800000000003144091800000000000000009999123100000010000000000000BRGGPSACNOR9106
012026030402HYPE3       010HYPERA      ON      NM   R$  000000000221400000000022450000000002183000000000220300000000022090000000002203000000000221509642000000000002092300000000004610925700000000000000009999123100000010000000000000BRHYPEACNOR0150
012026030402LAND3       010TERRASANTAPAON      NM   R$  000000000089900000000009270000000000888000000000090100000000009200000000000913000000000092500237000000000000226500000000000204137400000000000000009999123100000010000000000000BRLANDACNOR9104
012026030402LAVV3       010LAVVI       ON      NM   R$  000000000177200000000018350000000001772000000000182300000000018270000000001824000000000182703362000000000000633700000000001155482200000000000000009999123100000010000000000000BRLAVVACNOR4120
012026030402LEVE3       010METAL LEVE  ON      NM   R$  000000000355000000000035620000000003477000000000351900000000035410000000003541000000000354402850000000000000468900000000001650483100000000000000009999123100000010000000000000BRLEVEACNOR2202
012026030402LJQQ3       010QUERO-QUERO ON      NM   R$  000000000020700000000002110000000000204000000000020800000000002080000000000207000000000020804013000000000004618800000000000960760000000000000000009999123100000010000000000000BRLJQQACNOR5105
012026030402LOGG3       010LOG COM PROPON      NM   R$  000000000278600000000028690000000002785000000000281900000000027950000000002795000000000280902619000000000000494800000000001395157700000000000000009999123100000010000000000000BRLOGGACNOR7112
012026030402LOGN3       010LOG-IN      ON      NM   R$  000000000318800000000032490000000003178000000000320200000000031900000000003190000000000321500074000000000000012500000000000040025700000000000000009999123100000010000000000000BRLOGNACNOR3105
012026030402LPSB3       010LOPES BRASILON      NM   R$  000000000018900000000002000000000000188000000000019200000000002000000000000200000000000020100424000000000000213500000000000041204000000000000000009999123100000010000000000000BRLPSBACNOR0116
012026030402LREN3       010LOJAS RENNERON      NM   R$  000000000153500000000015430000000001501000000000151600000000015160000000001515000000000151615098000000000007217100000000010947360200000000000000009999123100000010000000000000BRLRENACNOR1228
012026030402MTRE3       010MITRE REALTYON      NM   R$  000000000039200000000003980000000000388000000000039200000000003930000000000393000000000039500812000000000000480200000000000188670200000000000000009999123100000010000000000000BRMTREACNOR6131
012026030402MTSA4       010METISA      PN           R$  000000000611500000000061890000000006115000000000615500000000061590000000005648000000000616000004000000000000000400000000000002462200000000000000009999123100000010000000000000BRMTSAACNPR9079
012026030402MULT3       010MULTIPLAN   ON      N2   R$  000000000333500000000033900000000003312000000000335200000000033630000000003363000000000336512501000000000002464400000000008260893900000000000000009999123100000010000000000000BRMULTACNOR5145
012026030402PRNR3       010PRINER      ON      NM   R$  000000000213900000000021650000000002115000000000213300000000021310000000002113000000000213101835000000000000300700000000000641561100000000000000009999123100000010000000000000BRPRNRACNOR4111
012026030402PSSA3       010PORTO SEGUROON      NM   R$  000000000509200000000052050000000005053000000000510300000000050970000000005078000000000509707743000000000001777800000000009072770400000000000000009999123100000010000000000000BRPSSAACNOR7161
012026030402RNEW3       010RENOVA      ON      N2   R$  000000000013300000000001350000000000129000000000013200000000001320000000000129000000000013200105000000000000074900000000000009932600000000000000009999123100000010000000000000BRRNEWACNOR8113
012026030402RNEW4       010RENOVA      PN      N2   R$  000000000013000000000001350000000000125000000000012900000000001270000000000125000000000012700234000000000000206900000000000026865300000000000000009999123100000010000000000000BRRNEWACNPR5113
012026030402ROMI3       010ROMI        ON      NM   R$  000000000080600000000008160000000000806000000000081100000000008100000000000810000000000081400631000000000000129400000000000104971900000000000000009999123100000010000000000000BRROMIACNOR8201
012026030402RSUL4       010RIOSULENSE  PN           R$  000000000631100000000064990000000006310000000000641300000000063440000000006312000000000634500018000000000000002200000000000014109100000000000000009999123100000010000000000000BRRSULACNPR3116
012026030402RVEE3       010REVEE       ON      NM   R$  000000000014700000000001470000000000147000000000014700000000001470000000000147000000000015600001000000000000000100000000000000014700000000000000009999123100000010000000000000BRRVEEACNOR9102
012026030402MOVI3       010MOVIDA      ON      NM   R$  000000000141500000000014300000000001383000000000140900000000014180000000001415000000000142205946000000000002721500000000003836937600000000000000009999123100000010000000000000BRMOVIACNOR0126
012026030402MRVE3       010MRV         ON      NM   R$  000000000097400000000009950000000000961000000000097300000000009700000000000970000000000097107660000000000005431600000000005288168400000000000000009999123100000010000000000000BRMRVEACNOR2128
012026030402RIAA3       010RIACHUELO   ON      NM   R$  000000000096100000000009720000000000932000000000095200000000009610000000000961000000000096207035000000000002381600000000002268743200000000000000009999123100000010000000000000BRRIAAACNOR2100
012026030402SMFT3       010SMART FIT   ON      NM   R$  000000000194700000000019880000000001918000000000194400000000019440000000001942000000000194621348000000000007462200000000014512608600000000000000009999123100000010000000000000BRSMFTACNOR1118
012026030402SMTO3       010SAO MARTINHOON      NM   R$  000000000180400000000018300000000001753000000000178500000000017790000000001775000000000177908728000000000002911200000000005197073600000000000000009999123100000010000000000000BRSMTOACNOR3129
012026030402ARND3       010ARANDU      ON      NM   R$  000000000007500000000000750000000000075000000000007500000000000750000000000075000000000008400001000000000000000100000000000000007500000000000000009999123100000010000000000000BRARNDACNOR6100
012026030402ASAI3       010ASSAI       ON      NM   R$  000000000088600000000008990000000000836000000000085600000000008360000000000836000000000083815487000000000017774800000000015220980500000000000000009999123100000010000000000000BRASAIACNOR0109
012026030402BRSR3       010BANRISUL    ON      N1   R$  000000000191600000000019420000000001912000000000192500000000019240000000001912000000000193900046000000000000005700000000000010977800000000000000009999123100000010000000000000BRBRSRACNOR3197
012026030402BRSR5       010BANRISUL    PNA     N1   R$  000000000187900000000018790000000001879000000000187900000000018790000000001739000000000209500001000000000000000100000000000000187900000000000000009999123100000010000000000000BRBRSRACNPA6201
012026030402BRSR6       010BANRISUL    PNB     N1   R$  000000000181700000000018520000000001806000000000183200000000018520000000001838000000000185304669000000000001553100000000002846308300000000000000009999123100000010000000000000BRBRSRACNPB4200
012026030402BRST3       010BRISANET    ON      NM   R$  000000000030100000000003060000000000298000000000030100000000003050000000000304000000000030500792000000000000405500000000000122377500000000000000009999123100000010000000000000BRBRSTACNOR9102
012026030402CEAB3       010CEA MODAS   ON      NM   R$  000000000123200000000012670000000001209000000000122500000000012140000000001214000000000121614785000000000010731300000000013148867000000000000000009999123100000010000000000000BRCEABACNOR1105
012026030402CEBR3       010CEB         ON           R$  000000000309900000000031780000000003082000000000310500000000031260000000003125000000000316000023000000000000003400000000000010557600000000000000009999123100000010000000000000BRCEBRACNOR5129
012026030402CEBR5       010CEB         PNA          R$  000000000300700000000030070000000002920000000000296200000000029320000000002932000000000298000017000000000000002800000000000008294200000000000000009999123100000010000000000000BRCEBRACNPA8128
012026030402CEBR6       010CEB         PNB          R$  000000000304900000000030500000000003000000000000300600000000030120000000003012000000000303600033000000000000007200000000000021647300000000000000009999123100000010000000000000BRCEBRACNPB6128
012026030402CEDO4       010CEDRO       PN      N1   R$  000000000094300000000009430000000000941000000000094100000000009410000000000931000000000094000002000000000000001000000000000000941600000000000000009999123100000010000000000000BRCEDOACNPR5128
012026030402CEEB3       010COELBA      ON           R$  000000000469100000000047500000000004691000000000472000000000047500000000004700000000000481300002000000000000000200000000000000944100000000000000009999123100000010000000000000BRCEEBACNOR3207
012026030402CGRA3       010GRAZZIOTIN  ON           R$  000000000286200000000028620000000002862000000000286200000000028620000000002751000000000289900002000000000000000300000000000000858600000000000000009999123100000010000000000000BRCGRAACNOR2088
012026030402CGRA4       010GRAZZIOTIN  PN           R$  000000000273000000000027590000000002675000000000272300000000027270000000002703000000000273600019000000000000002200000000000005990600000000000000009999123100000010000000000000BRCGRAACNPR9088
012026030402CAMB3       010CAMBUCI     ON           R$  000000000094000000000009520000000000930000000000094500000000009430000000000943000000000095400029000000000000005800000000000005482200000000000000009999123100000010000000000000BRCAMBACNOR4136
012026030402CAML3       010CAMIL       ON  ED  NM   R$  000000000066200000000006720000000000658000000000066500000000006700000000000669000000000067002286000000000000777100000000000517085400000000000000009999123100000010000000000000BRCAMLACNOR3135
012026030402CASH3       010MELIUZ      ON      NM   R$  000000000035000000000003680000000000347000000000035800000000003590000000000359000000000036003170000000000003004300000000001078478100000000000000009999123100000010000000000000BRCASHACNOR8107
012026030402CBAV3       010CBA         ON      NM   R$  000000000101500000000010170000000001012000000000101300000000010130000000001012000000000101302985000000000005272800000000005344500500000000000000009999123100000010000000000000BRCBAVACNOR5104
012026030402CBEE3       010AMPLA ENERG ON           R$  000000000099800000000009980000000000998000000000099800000000009980000000000998000000000102100001000000000000000100000000000000099800000000000000009999123100000010000000000000BRCBEEACNOR3163
012026030402ENEV3       010ENEVA       ON      NM   R$  000000000208500000000021230000000002066000000000209700000000021060000000002101000000000210615104000000000009841900000000020640858400000000000000009999123100000010000000000000BRENEVACNOR8107
012026030402INEP3       010INEPAR      ON           R$  000000000011900000000001300000000000119000000000012800000000001300000000000128000000000013000095000000000000132500000000000017048000000000000000009999123100000010000000000000BRINEPACNOR1145
012026030402INEP4       010INEPAR      PN           R$  000000000011300000000001140000000000109000000000011100000000001100000000000110000000000011400022000000000000009800000000000001097500000000000000009999123100000010000000000000BRINEPACNPR8145
012026030402INTB3       010INTELBRAS   ON      NM   R$  000000000132500000000013940000000001325000000000137000000000013760000000001375000000000137607218000000000003762800000000005157271800000000000000009999123100000010000000000000BRINTBACNOR9115
012026030402IRBR3       010IRBBRASIL REON      NM   R$  000000000595700000000060100000000005800000000000587200000000058660000000005861000000000586903323000000000000550100000000003230196300000000000000009999123100000010000000000000BRIRBRACNOR4113
012026030402ALPK3       010ESTAPAR     ON      NM   R$  000000000050500000000005150000000000492000000000050600000000005100000000000503000000000051000575000000000000162400000000000082214900000000000000009999123100000010000000000000BRALPKACNOR9101
012026030402ALUP11      010ALUPAR      UNT     N2   R$  000000000343800000000034960000000003413000000000344900000000034650000000003465000000000349005363000000000000886900000000003059311400000000000000009999123100000010000000000000BRALUPCDAM15126
012026030402ALUP3       010ALUPAR      ON      N2   R$  000000000123900000000012710000000001235000000000125200000000012660000000001250000000000127900025000000000000005100000000000006385700000000000000009999123100000010000000000000BRALUPACNOR8126
012026030402ALUP4       010ALUPAR      PN      N2   R$  000000000109800000000011060000000001087000000000109400000000010900000000001090000000000110600032000000000000007400000000000008102800000000000000009999123100000010000000000000BRALUPACNPR5126
012026030402HAGA3       010HAGA S/A    ON           R$  000000000022700000000002270000000000219000000000022600000000002270000000000219000000000022700015000000000000008000000000000001814200000000000000009999123100000010000000000000BRHAGAACNOR7103
012026030402BPAC11      010BTGP BANCO  UNT     N2   R$  000000000585700000000060680000000005857000000000597000000000059890000000005987000000000599128903000000000012691800000000075773102300000000000000009999123100000010000000000000BRBPACUNT006128
012026030402BPAC3       010BTGP BANCO  ON      N2   R$  000000000432100000000044920000000004269000000000437500000000044260000000004345000000000458900035000000000000004100000000000017939900000000000000009999123100000010000000000000BRBPACACNOR7139
012026030402BRKM3       010BRASKEM     ON      N1   R$  000000000088000000000010050000000000880000000000095000000000009800000000000977000000000100000269000000000000062200000000000059110800000000000000009999123100000010000000000000BRBRKMACNOR1119
012026030402BRKM5       010BRASKEM     PNA     N1   R$  000000000095500000000010860000000000945000000000102000000000010860000000001083000000000108613461000000000006869900000000007012064400000000000000009999123100000010000000000000BRBRKMACNPA4123
012026030402ECOR3       010ECORODOVIAS ON      NM   R$  000000000102500000000010320000000001007000000000101900000000010240000000001020000000000102512533000000000007109400000000007247180800000000000000009999123100000010000000000000BRECORACNOR8122
012026030402AERI3       010AERIS       ON      NM   R$  000000000027500000000002800000000000270000000000027400000000002750000000000275000000000027700134000000000000055700000000000015277200000000000000009999123100000010000000000000BRAERIACNOR4102
012026030402AGRO3       010BRASILAGRO  ON      NM   R$  000000000211000000000021900000000002109000000000216500000000021900000000002175000000000219001256000000000000201300000000000435852100000000000000009999123100000010000000000000BRAGROACNOR7116
012026030402BRBI11      010BR PARTNERS UNT     N2   R$  000000000185000000000018990000000001850000000000187800000000018640000000001864000000000187601523000000000000209600000000000393791900000000000000009999123100000010000000000000BRBRBICDAM10116
012026030402DXCO3       010DEXCO       ON      NM   R$  000000000052200000000005280000000000520000000000052300000000005260000000000526000000000052704023000000000002073200000000001086353300000000000000009999123100000010000000000000BRDXCOACNOR8108
012026030402BSLI3       010BRB BANCO   ON           R$  000000000043500000000005330000000000429000000000050000000000004910000000000491000000000050001257000000000000988700000000000495261900000000000000009999123100000010000000000000BRBSLIACNOR5198
012026030402BSLI4       010BRB BANCO   PN           R$  000000000044600000000004760000000000440000000000045600000000004460000000000445000000000045100216000000000000070800000000000032319400000000000000009999123100000010000000000000BRBSLIACNPR2198
012026030402CLSC3       010CELESC      ON      N2   R$  000000001240100000000124010000000012401000000001240100000000124010000000012503000000001348800001000000000000000100000000000001240100000000000000009999123100000010000000000000BRCLSCACNOR6159
012026030402CLSC4       010CELESC      PN      N2   R$  000000001491900000000149390000000014820000000001487100000000148740000000014822000000001492000035000000000000003800000000000056512600000000000000009999123100000010000000000000BRCLSCACNPR3138
012026030402CMIG3       010CEMIG       ON      N1   R$  000000000151700000000015360000000001514000000000152500000000015300000000001528000000000153000264000000000000042800000000000065299300000000000000009999123100000010000000000000BRCMIGACNOR6251
012026030402CMIG4       010CEMIG       PN      N1   R$  000000000116600000000011860000000001163000000000117600000000011810000000001180000000000118110198000000000011499200000000013523772300000000000000009999123100000010000000000000BRCMIGACNPR3252
012026030402CSUD3       010CSU DIGITAL ON      NM   R$  000000000192500000000019400000000001898000000000191800000000019230000000001922000000000193700193000000000000028200000000000054108100000000000000009999123100000010000000000000BRCSUDACNOR5117
012026030402CTKA4       010KARSTEN     PN           R$  000000000425000000000042900000000004200000000000424400000000042490000000004100000000000425000006000000000000000600000000000002546700000000000000009999123100000010000000000000BRCTKAACNPR7043
012026030402CURY3       010CURY S/A    ON      NM   R$  000000000370500000000038130000000003692000000000373300000000036920000000003692000000000370013466000000000002874100000000010730209100000000000000009999123100000010000000000000BRCURYACNOR3116
012026030402CVCB3       010CVC BRASIL  ON      NM   R$  000000000021300000000002170000000000209000000000021300000000002150000000000215000000000021605414000000000016053200000000003426451400000000000000009999123100000010000000000000BRCVCBACNOR1118
012026030402CXSE3       010CAIXA SEGURION      NM   R$  000000000176700000000017930000000001751000000000176700000000017680000000001768000000000176911690000000000006279100000000011095344400000000000000009999123100000010000000000000BRCXSEACNOR7114
012026030402ENGI11      010ENERGISA    UNT     N2   R$  000000000527100000000054380000000005271000000000537000000000054040000000005404000000000541108204000000000002155400000000011576029300000000000000009999123100000010000000000000BRENGICDAM16140
012026030402ENGI3       010ENERGISA    ON      N2   R$  000000000127800000000013050000000001264000000000128900000000013050000000001295000000000130400054000000000000008800000000000011343500000000000000009999123100000010000000000000BRENGIACNOR0150
012026030402ENGI4       010ENERGISA    PN      N2   R$  000000000099100000000010300000000000991000000000101700000000010300000000001030000000000103400061000000000000010700000000000010884700000000000000009999123100000010000000000000BRENGIACNPR7146
012026030402ENJU3       010ENJOEI      ON      NM   R$  000000000011000000000001100000000000102000000000010400000000001030000000000102000000000010300629000000000001490100000000000155682200000000000000009999123100000010000000000000BRENJUACNOR9100
012026030402ENMT3       010ENERGISA MT ON           R$  000000000490000000000050000000000004861000000000494600000000050000000000004822000000000500000010000000000000001200000000000005936200000000000000009999123100000010000000000000BRENMTACNOR5125
012026030402EPAR3       010EMBPAR S/A  ON           R$  000000000033200000000003520000000000332000000000034000000000003430000000000338000000000034700017000000000000003200000000000001091100000000000000009999123100000010000000000000BREPARACNOR9107
012026030402BIOM3       010BIOMM       ON      MA   R$  000000000064400000000007640000000000644000000000071400000000007600000000000744000000000076000537000000000000154100000000000110089400000000000000009999123100000010000000000000BRBIOMACNOR2113
012026030408FICT3       010FICTORALIMENON           R$  000000000006400000000000650000000000055000000000005700000000000550000000000055000000000005800125000000000000124400000000000007208700000000000000009999123100000010000000000000BRFICTACNOR3101
012026030408JFEN3       010JOAO FORTES ON           R$  000000000009200000000000940000000000089000000000009000000000000890000000000089000000000009400110000000000000045500000000000004099200000000000000009999123100000010000000000000BRJFENACNOR0061
012026030408PMAM3       010PARANAPANEMAON  ES  NM   R$  000000000006100000000000630000000000059000000000006000000000000610000000000060000000000006101354000000000000966200000000000058848600000000000000009999123100000010000000000000BRPMAMACNOR3046
012026030408OSXB3       010OSX BRASIL  ON      NM   R$  000000000016800000000001680000000000168000000000016800000000001680000000000168000000000017000008000000000000001700000000000000285600000000000000009999123100000010000000000000BROSXBACNOR8109
012026030408NEXP3       010NEXPE       ON           R$  000000000027800000000002800000000000278000000000027900000000002800000000000279000000000028500002000000000000000300000000000000083800000000000000009999123100000010000000000000BRNEXPACNOR0101
012026030408AGXY3       010AGROGALAXY  ON      NM   R$  000000000021800000000002220000000000217000000000021800000000002170000000000217000000000022100113000000000000020700000000000004522400000000000000009999123100000010000000000000BRAGXYACNOR4104
012026030408OIBR3       010OI          ON      N1   R$  000000000001700000000000170000000000017000000000001700000000000170000000000017000000000001800157000000000001306800000000000022215600000000000000009999123100000010000000000000BROIBRACNOR1112
012026030408OIBR4       010OI          PN      N1   R$  000000000013500000000001350000000000135000000000013500000000001350000000000128000000000013500003000000000000000500000000000000067500000000000000009999123100000010000000000000BROIBRACNPR8111
012026030408AMBP3       010AMBIPAR     ON      NM   R$  000000000002400000000000240000000000023000000000002300000000000240000000000023000000000002400481000000000001752000000000000041785500000000000000009999123100000010000000000000BRAMBPACNOR6105
012026030408AMER3       010AMERICANAS  ON      NM   R$  000000000052300000000005320000000000514000000000052000000000005150000000000515000000000051601828000000000001058300000000000550520600000000000000009999123100000010000000000000BRAMERACNOR6103
012026030408HOOT4       010HOTEIS OTHONPN           R$  000000000068700000000007100000000000687000000000069000000000006910000000000690000000000069100017000000000000004800000000000003314000000000000000009999123100000010000000000000BRHOOTACNPR9015
012026030408LIGT3       010LIGHT S/A   ON      NM   R$  000000000048300000000005020000000000481000000000049300000000004810000000000481000000000048201905000000000001236800000000000609773800000000000000009999123100000010000000000000BRLIGTACNOR2125
012026030408RPMG3       010PET MANGUINHON           R$  000000000023100000000002340000000000223000000000022600000000002260000000000225000000000022700018000000000000003000000000000000678800000000000000009999123100000010000000000000BRRPMGACNOR9194
012026030408RSID3       010ROSSI RESID ON      NM   R$  000000000017500000000001750000000000175000000000017500000000001750000000000165000000000017500006000000000000000600000000000000105000000000000000009999123100000010000000000000BRRSIDACNOR8121
012026030408BOBR4       010BOMBRIL     PN           R$  000000000012300000000001230000000000123000000000012300000000001230000000000121000000000012300003000000000000000300000000000000036900000000000000009999123100000010000000000000BRBOBRACNPR3128
012026030408CTAX3       010CONTAX      ON           R$  000000000007800000000000830000000000078000000000007800000000000830000000000078000000000008300006000000000000002300000000000000179900000000000000009999123100000010000000000000BRCTAXACNOR3119
012026030408CTSA3       010SANTANENSE  ON           R$  000000000024800000000002480000000000248000000000024800000000002480000000000232000000000024900001000000000000000100000000000000024800000000000000009999123100000010000000000000BRCTSAACNOR3063
012026030410ABCB10      010ABC BRASIL  PN  REC N2   R$  000000000250100000000027100000000002500000000000260100000000027100000000002602000000000000000009000000000000001400000000000003641600000000000000009999123100000010000000000000BRABCBR20PR9149
012026030410BMEB9       010MERCANTIL   ON  REC N1   R$  000000000680000000000069000000000006700000000000677000000000069000000000006752000000000703500024000000000000008600000000000058224900000000000000009999123100000010000000000000BRBMEBR04OR7209
012026030410BMGB10      010BANCO BMG   PN  REC N1   R$  000000000049000000000005000000000000490000000000049200000000005000000000000497000000000050900035000000000000009100000000000004482900000000000000009999123100000010000000000000BRBMGBR03PR1117
012026030410PMAM1       010PARANAPANEMADIR ORD NM   R$  000000000000100000000000010000000000001000000000000100000000000010000000000000000000000000100080000000000000417500000000000000417500000000000000009999123100000010000000000000BRPMAMD10OR9045
012026030410AZUL12      010AZUL        DIR     N2   R$  000000001370000000000140000000000011300000000001290000000000135890000000011510000000001349800062000000000261000000000000000003376538000000000000009999123110000000000000000000BRAZULD02M17101
012026030410AZUL14      010AZUL        DIR     N2   R$  000000000454500000000050000000000003250000000000420000000000048000000000003610000000000480000088000000000301000000000000000001289894000000000000009999123110000000000000000000BRAZULD03M16101
012026030410AZUL16      010AZUL        DIR     N2   R$  000000001162000000000119000000000011620000000001160000000000116200000000011620000000001179000070000000000088000000000000000001024540000000000000009999123110000000000000000000BRAZULD04M15101
012026030410DIVS12      010SPARTA DIVS DIR          R$  000000000000600000000000070000000000002000000000000400000000000050000000000005000000000000700100000000000000040331000000000000171079000000000000009999123100000010000000000000BRDIVSD02M17114
012026030410VGIA12      010FIAGRO VGIA DIR          R$  000000000001000000000000120000000000009000000000001000000000000110000000000010000000000001103011000000000001318581000000000013803255000000000000009999123100000010000000000000BRVGIAD04M12153
012026030410VIVR13      010VIVER       DIR     NM   R$  000000000000100000000000010000000000001000000000000100000000000010000000000000000000000000100041000000000000047500000000000000047500000000000000009999123100000010000000000000BRVIVRD03M15125
012026030410HYPE1       010HYPERA      DIR ORD NM   R$  000000000010000000000001020000000000077000000000009000000000001000000000000081000000000010001156000000000000452900000000000041156900000000000000009999123100000010000000000000BRHYPED02OR3149
012026030412BLCA11      010FII BLCA VBICI           R$  000000000958800000000098000000000009300000000000930700000000097470000000009220000000000974700030000000000000013311000000000123887878000000000000009999123100000010000000000000BRBLCACTF009151
012026030412BLMG11      010FII BLUE LOGCI           R$  000000000349600000000035000000000003482000000000349400000000035000000000003495000000000350000903000000000000006707000000000023435810000000000000009999123100000010000000000000BRBLMGCTF005167
012026030412BLMO11      010FII BLMO VBICI  ER       R$  000000000880000000000088000000000008500000000000879800000000087690000000008769000000000880000040000000000000155033000000001364118489000000000000009999123100000010000000000000BRBLMOCTF009152
012026030412BLOG11      010FII BLOG    CI           R$  000000000084900000000008490000000000849000000000084900000000008490000000000000000000000084900002000000000000000003000000000000002547000000000000009999123100000010000000000000BRBLOGCTF001117
012026030412PCIP11      010FII PCIP PAXCI           R$  000000000850000000000086000000000008500000000000855200000000085340000000008534000000000855403270000000000000024736000000000211557144000000000000009999123100000010000000000000BRPCIPCTF003105
012026030412PQAG11      010FII PARQ ANHCI  ER       R$  000000000554400000000056060000000005537000000000555500000000056050000000005605000000000565000012000000000000000042000000000000233347000000000000009999123100000010000000000000BRPQAGCTF009169
012026030412PQDP11      010FII D PEDRO CI  ER       R$  000000024149400000002500000000000241003000000024495700000002449990000000244999000000024996300112000000000000000174000000000042622646000000000000009999123100000010000000000000BRPQDPCTF004293
012026030412BPML11      010FII BTG SHOPCI           R$  000000000956800000000095750000000009466000000000948400000000095190000000009477000000000951901330000000000000028932000000000274397381000000000000009999123100000010000000000000BRBPMLCTF006154
012026030412CNES11      010FII CENESP  CI           R$  000000000016900000000001730000000000166000000000016900000000001660000000000166000000000016800466000000000000015235000000000002579364000000000000009999123100000010000000000000BRCNESCTF001279
012026030412ABCP11      010FII ABC IMOBCI  ER       R$  000000000813700000000081370000000008001000000000801800000000080010000000008001000000000804400066000000000000000783000000000006278267000000000000009999123100000010000000000000BRABCPCTF000361
012026030412CPLG11      010FII CPLG    CI           R$  000000000120300000000012390000000001150000000000118600000000012100000000001184000000000121700104000000000000084162000000000099899230000000000000009999123100000010000000000000BRCPLGCTF006116
012026030412CPOF11      010FII CPOF    CI           R$  000000001098000000000109800000000010980000000001098000000000109800000000010500000000001098000001000000000000000001000000000000010980000000000000009999123100000010000000000000BRCPOFCTF002129
012026030412CPSH11      010FII CPSH    CI           R$  000000000106600000000010660000000001049000000000105500000000010550000000001055000000000106303947000000000000910667000000000961419540000000000000009999123100000010000000000000BRCPSHCTF017135
012026030412BGRB11      010FII BGRB    CI  ER       R$  000000001151000000000115100000000011510000000001151000000000115100000000010552000000001151000001000000000000000001000000000000011510000000000000009999123100000010000000000000BRBGRBCTF005115
012026030412CPTS11      010FII CAPI SECCI           R$  000000000081500000000008200000000000813000000000081600000000008140000000000814000000000081523044000000000000639575000000000521935326000000000000009999123100000010000000000000BRCPTSCTF004254
012026030412CPUR11      010FII CPHBC URCI           R$  000000000105000000000010500000000001026000000000103600000000010400000000001030000000000104000027000000000000000498000000000000516293000000000000009999123100000010000000000000BRCPURCTF004118
012026030412CRFF11      010FII CX RBRA2CI  ER       R$  000000000753400000000075420000000007534000000000753800000000075420000000007540000000000787500002000000000000000002000000000000015076000000000000009999123100000010000000000000BRCRFFCTF006182
012026030412FAED11      010FII ANH EDUCCI           R$  000000001585600000000160020000000015550000000001573400000000155500000000015550000000001570000934000000000000001653000000000026009562000000000000009999123100000010000000000000BRFAEDCTF003298
012026030412FAMB11      010FII ALMIRANTCI           R$  000000010520000000001052000000000105000000000010518100000001050000000000104500000000010544000002000000000000000011000000000001157000000000000000009999123100000010000000000000BRFAMBCTF018319
012026030412FATN11      010FII ATHENA ICI           R$  000000000871300000000087290000000008684000000000870600000000087290000000008708000000000872902493000000000000024503000000000213342011000000000000009999123100000010000000000000BRFATNCTF000174
012026030412FCFL11      010FII CAMPUSFLCI           R$  000000001260000000000127240000000012453000000001254900000000127240000000012510000000001272400958000000000000001936000000000024295946000000000000009999123100000010000000000000BRFCFLCTF009290
012026030412FIGS11      010FII GEN SHOPCI  ER       R$  000000000509900000000051870000000005064000000000511600000000051200000000005115000000000512000242000000000000003402000000000017407549000000000000009999123100000010000000000000BRFIGSCTF009249
012026030412BMLC11      010FII BMBRC LCCI           R$  000000001024100000000102410000000010240000000001024000000000102400000000009922000000001023900003000000000000000012000000000000122881000000000000009999123100000010000000000000BRBMLCCTF004271
012026030412BNFS11      010FII BANRISULCI  ER       R$  000000000688700000000068870000000006605000000000675700000000066050000000006604000000000674000163000000000000001640000000000011082419000000000000009999123100000010000000000000BRBNFSCTF000262
012026030412JCCJ11      010FII JHSF CJ CI           R$  000000001550100000000155010000000015000000000001501000000000150000000000015002000000000000000009000000000000000250000000000003752736000000000000009999123100000010000000000000BRJCCJCTF002132
012026030412JFLL11      010FII JFL LIV CI  ER       R$  000000000634400000000063990000000006301000000000634300000000063520000000006301000000000635300021000000000000000141000000000000894493000000000000009999123100000010000000000000BRJFLLCTF002164
012026030412RBDS11      010FII RBRESID2CI           R$  000000000022000000000002230000000000220000000000022200000000002230000000000190000000000023000003000000000000000033000000000000007329000000000000009999123100000010000000000000BRRBDSCTF006179
012026030412RBFM11      010FII RIOB MT CI  ER       R$  000000000111300000000011600000000001113000000000113700000000011570000000001150000000000115701990000000000000028814000000000032767716000000000000009999123100000010000000000000BRRBFMCTF004102
012026030412RBFY11      010FII RBFY    CI           R$  000000000750000000000075000000000007500000000000750000000000075000000000007150000000000789000010000000000000219241000000001644307500000000000000009999123100000010000000000000BRRBFYCTF009104
012026030412RBHG11      010FII RBCRI IVCI  ER       R$  000000000691500000000069870000000006872000000000696100000000069750000000006952000000000697500113000000000000001181000000000008221428000000000000009999123100000010000000000000BRRBHGCTF002155
012026030412RBHY11      010FII RB YIELDCI  ER       R$  000000000803800000000081070000000007964000000000804600000000079800000000007980000000000800000181000000000000007161000000000057621760000000000000009999123100000010000000000000BRRBHYCTF005165
012026030412RBIR11      010FII RBRES IVCI           R$  000000000901200000000090120000000009009000000000901000000000090090000000009007000000000909800006000000000000000036000000000000324386000000000000009999123100000010000000000000BRRBIRCTF007126
012026030412RBOP11      010FII MERC BR CI           R$  000000002410000000000241000000000023500000000002379700000000235000000000022400000000002409900007000000000000000013000000000000309368000000000000009999123100000010000000000000BRRBOPCTF009129
012026030412RBRD11      010FII RB II   CI  ER       R$  000000000411100000000041110000000004088000000000410100000000040990000000004090000000000410000055000000000000000292000000000001197567000000000000009999123100000010000000000000BRRBRDCTF008284
012026030412RBRL11      010FII RBRL PAXCI           R$  000000000919000000000092730000000009159000000000923000000000092210000000009159000000000922100635000000000000005466000000000050454955000000000000009999123100000010000000000000BRRBRLCTF001174
012026030412RBRP11      010FII RBRP PAXCI           R$  000000000538000000000054500000000005352000000000542700000000054500000000005450000000000545301932000000000000053111000000000288245060000000000000009999123100000010000000000000BRRBRPCTF002193
012026030412RBRR11      010FII RBRR PAXCI           R$  000000000857500000000086570000000008569000000000862300000000086020000000008602000000000860308668000000000000055035000000000474596566000000000000009999123100000010000000000000BRRBRRCTF008201
012026030412RBRS11      010FII RIOB RR CI  ER       R$  000000000500000000000050000000000004301000000000498900000000048000000000004326000000000480000128000000000000091576000000000456906807000000000000009999123100000010000000000000BRRBRSCTF006152
012026030412RBRX11      010FII RBRX PAXCI           R$  000000000086200000000008710000000000859000000000086700000000008680000000000868000000000087011032000000000000681903000000000591723006000000000000009999123100000010000000000000BRRBRXCTF006149
012026030412RBRY11      010FII RBRY PAXCI           R$  000000000974500000000097500000000009658000000000969900000000097020000000009675000000000970205192000000000000058076000000000563283650000000000000009999123100000010000000000000BRRBRYCTF004188
012026030412RBVA11      010FII RIOB VA CI  ER       R$  000000000098500000000009890000000000980000000000098500000000009870000000000986000000000098707301000000000000197550000000000194641314000000000000009999123100000010000000000000BRRBVACTF006189
012026030412RCRB11      010FII RIOB RC CI  ER       R$  000000001424100000000143920000000014228000000001429400000000143490000000014244000000001434900919000000000000015659000000000223837109000000000000009999123100000010000000000000BRRCRBCTF000178
